:020000040000FA
:0600000012EF07F01200F0
:0600080004EF08F01200F5
:060018000CEF08F01200DD
:06082A0001000E100000A9
:080830008F0000000800000029
:08083800DACFE4FFE652E552BD
:10084000E5CFDAFF1100D8CFE4FFE0CFE4FFE46E9C
:10085000DACFE4FFE652E552E5CFDAFFE550E5CF27
:10086000E0FFE5CFD8FF100004D865EC08F01ED8F3
:10087000FCD70F0EC1120FEC08F03FEF04F0F00EA2
:1008800095169388938A8150100B01E0010E0001A8
:10089000976F8150200B01E0010E986F0001906B63
:1008A000916B926B936B010E946F12000001945147
:1008B00001E0FAD8200E0001605D01E2B0D06D5079
:1008C000020B01E0120000019051911102E1000EB3
:1008D00008D090C0E9FF91C0EAFFEF50800B01E023
:1008E000010E000901E09BD0410E0501025D50E1BF
:1008F00097D800090EE00501AB0E056F010E066FDB
:10090000410E076F020E086F096FB90E0A6F8384DC
:100910001CD095D800090FE00501AB0E056F010E44
:10092000066F410E076F030E086F020E096FB80EB7
:100930000A6F83860AD00501AB0E056F010E066FA4
:10094000076B086B096BFE0E0A6F00019251931141
:1009500002E1000E08D092C0E9FF93C0EAFFEF5019
:10096000800B01E0010E000913E1060EE66E050E94
:10097000E66E050EE66E010EE66EE66E0FEC0FF00B
:10098000006E050EE15E0050F3CF92F0F4CF93F0CD
:10099000440E0501025D30E183948396AB0E056F32
:1009A000010E066F440E076F086B020E096FB80E3A
:1009B0000A6F00019251931102E1000E08D092C01B
:1009C000E9FF93C0EAFFEF50800B01E0010E000940
:1009D00013E1060EE66E050EE66E050EE66E010EDE
:1009E000E66EE66E0FEC0FF0006E050EE15E005055
:1009F000F3CF92F0F4CF93F0050EE66E000EE66EA4
:100A0000050EE66EE66A010EE66E0FEC0FF0006E64
:100A1000050EE15E0050F3CF90F0F4CF91F012009C
:100A20008150100B01E0010E0001975D07E081503D
:100A3000100B01E0010E976F81A8010C000C815092
:100A4000200B01E0010E0001985D07E08150200BB2
:100A500001E0010E986F81AA010C000CD9CFE6FFCE
:100A6000E1CFD9FF020EE1269280010EC26E3C0E4C
:100A7000C06EC08EC282C2B2FED7C350DF6E010EFE
:100A8000C4CFDBFFDECF00F0DDCF01F000C0F3FF0D
:100A900001C0F4FF020EE15C02E2E16AE552E16EA0
:100AA000E552E7CFD9FF120000019551961104E1FC
:100AB000100E956F270E966F9507000E965B6DA230
:100AC00007D0955196112EE1837083B013D027D0B3
:100AD0000001605102E1839022D0600502E1838031
:100AE00009D0020E605D02E1838019D0040E605DC2
:100AF00003E1839083821200100E605D06E1000125
:100B0000955196110FE183700AD0200E605D0AE1C5
:100B100000019551961106E1837083A002D0839263
:100B20001200838212001200120012001200C4EFA1
:100B300005F012001E0EE66E010EE66E66EC0EF07B
:100B4000E552E552050EE66E000EE66E050EE66E07
:100B5000E66A010EE66E0FEC0FF0006E050EE15E28
:100B60000050F3CF90F0F4CF91F012006D840001AB
:100B7000080E9B6F070E9C6F9B07000E9C5B9B51A2
:080B80009C11FAE16D941200D2
:080B8800040120511F0B0108BC
:100B900001E01200245101E01200060E215D21E166
:100BA0002351230A1BE0010A0CE0030A1AE10001A9
:100BB000610517E10001860E716F0C0E726F090E50
:100BC00009D0000161050DE10001050E716F0D0EE8
:100BD000726F240E746F756BC00E02D00001800E10
:100BE000736F04012051600BE842E842E842E8429A
:100BF000E842010801E0120021510B0A2AE0080A2C
:100C00001DE0090A15E0080A09E00B0A05E0080AD8
:100C100001E012002FEF06F030EF06F000019D0E0C
:100C2000716F000E726F010E746F756BC10E0FD075
:100C30000001800E736F23C49DF0120000019E0E10
:100C4000716F000E726F010E746F756B810E736F92
:100C500012000001800E736F22C49EF01200120079
:020C6000120080
:0E0C62001201000200000008D8043F0002004A
:100C70000102000109022900010100C0320904003B
:100C800000020300000009211101000122240007D5
:100C90000581034000010705010340000104030929
:100CA000042803540065006D006100730065006B4B
:100CB00000200050006F006C007900740065006334
:100CC0000068006E00690063003C03540065006D1D
:100CD00000700065007200610074007500720065AC
:100CE0000020004D006F006E00690074006F0072FC
:100CF0000069006E006700200053007900730074E3
:100D00000065006D0006FFFF0901A1011901290519
:100D1000150025FF750895068102190129051500A2
:100D200025FF750895059102C0740C9D0CA10CC996
:010D30000CB6
:0E0D32002A0EF66E080EF76E000EF86E000127
:100D40000900F5508A6F0900F5508B6F03E18A673F
:100D500001D03DD00900F550856F0900F550866F30
:100D60000900F550876F09000900F550E96E090088
:100D7000F550EA6E090009000900F550886F090076
:100D8000F550896F09000900F6CF8CF0F7CF8DF090
:100D9000F8CF8EF085C0F6FF86C0F7FF87C0F8FF5A
:100DA0000001885302E1895307E00900F550EE6E17
:100DB0008807F8E28907F9D78CC0F6FF8DC0F7FFE6
:100DC0008EC0F8FF00018A07000E8B5BBFD71200B0
:100DD000FE0EE3CFE9FFFF0EE3CFEAFFE9CFF3FF1B
:100DE000EACFF4FFFB0EE35003E1FC0EE35009E011
:100DF000FB0EE30602E2FC0EE306FD0EE350EE6E90
:040E0000F1D7120014
:0C0E0400000EF36E00EE00F0040E01D8AA
:100E10001200EA6002D0EE6AFCD7F350E9601200DB
:040E2000EE6AFCD7A3
:0C0E240013EE00F023EE00F0F86A049CCE
:100E300099EC06F003EC08F034EC04F0FBD7120058
:0610000012EF07F01200E0
:021006001200D6
:061008001CEF04F01200D1
:02100E000000E0
:06101000000000010000D9
:0610180023EF04F01200BA
:02101E00D9CF28
:10102000E6FFE1CFD9FFE6526A6A686A9F0E6B6EEF
:10103000FB0E696E6D8C6D9C6E6A000EE66EE66A44
:10104000E66A710EE66E0F0EE66EE8EC06F0006ED4
:10105000050EE15E0050DF6ADF50006E016A080E87
:10106000005C000E015810E2DF50040DF3CFE9FFE1
:10107000F4CFEAFF000EE926040EEA22EE6AEE6AD9
:10108000EE6AEE6ADF2AE8D7160E706E68A60CD0FC
:10109000030EE66E680EE66E0F0EE66E7EEC0FF047
:1010A000E552E552E552F2D70001736B786B796B2C
:1010B0007A6B6D98080E6B6F040E6C6F616B606BD2
:1010C000E552E552E7CFD9FF1200D9CFE6FFE1CFD5
:1010D000D9FFE652000160510BE16D6A696A6DB695
:1010E00002D06D86FCD70001010E606F160E6F6E88
:1010F000600508E16DBA06D0686A696A6980698826
:10110000020E606F6850040B04E06950040B01E0AC
:101110009ED86DB265D06850010B11E06950010B8B
:101120000EE07DDF0001040E606F0401200E026FEF
:10113000040E036F080E016F006B8C0E00136850D5
:10114000100B0FE06950100B0CE072D8040EE66E25
:10115000680EE66E0F0EE66E7EEC0FF0E552E5527D
:10116000E5526850400B10E06950400B0DE095ECE3
:1011700005F0060EE66E680EE66E0F0EE66E7EEC6D
:101180000FF0E552E552E5526850200B04E069503B
:10119000200B01E02AD86850020B06E06950020BD0
:1011A00003E096EC05F06A6A040E0001605D18E346
:1011B00069A616D0DF6A040EDF5C12E268A610D0C2
:1011C0006CCF80F0030EE66E680EE66E0F0EE66ED4
:1011D0007EEC0FF0E552E552E5524CD8DF2AEBD712
:1011E000E552E552E7CFD9FF120070A015D063C0D9
:1011F000E9FF64C0EAFFEF5080080DE16BC0E9FF32
:101200006CC0EAFFEF50840806E163C0E9FF64C0E8
:10121000EAFF8C0EEF6E7090050EE66E680EE66EBD
:101220000F0EE66E7EEC0FF0E552E552E55212002D
:101230006984040EE66E680EE66E0F0EE66E7EECB6
:101240000FF0E552E552E5526D8293EF05F06D9295
:1012500094EC05F0699468A40CD0020EE66E680E5A
:10126000E66E0F0EE66E7EEC0FF0E552E552E552AB
:10127000F2D71200FD0E0001801520E17E0E8015D0
:10128000E8407F0B040DF3CF63F0F4CF64F0000E61
:101290006327040E642363C065F064C066F065755F
:1012A00063C0E9FF64C0EAFFEF503C0BE842E8424C
:1012B0000D0802E164EF09F07BEF09F0FD0E8015E7
:1012C000040801E120D812006BC0E9FF6CC0EAFFFE
:1012D000EF50800B05E06BC0E9FF6CC0EAFFEF6ADE
:1012E00000016F6B706B746B756B736BF3D897EC5D
:1012F00005F0EDEF0BF0020E0001705D02E145EF2D
:101300000DF0CDEF09F0D9CFE6FFE1CFD9FFE652DE
:101310006BC0E9FF6CC0EAFFEF50400B01E0010E2B
:10132000DF6E00016B75080E605D09E122C46EFF7F
:101330006E50000802E2100E01D0040E606F7005BE
:1013400026E16BC0E9FF6CC0EAFF020EE926000E41
:10135000EA22280EEE6E040EED6E0EDB020E000188
:101360006F5D06E16BC0E9FF6CC0EAFF840E0DD033
:10137000DF5006E16BC0E9FF6CC0EAFFC80E05D084
:101380006BC0E9FF6CC0EAFF880EEF6E01D005D894
:10139000E552E552E7CFD9FF1200D9CFE6FFE1CF02
:1013A000D9FF030EE126020E0001705D49E16D5088
:1013B000100B46E063C0E9FF64C0EAFFEE52EF5055
:1013C000006E016A080E00183BE1015039E163C06C
:1013D000E9FF64C0EAFFEF503C0BE842E8420D0829
:1013E0002FE165C0E9FF66C0EAFFEF50800B28E1FE
:1013F00065C0E9FF66C0EAFF020EE926000EEA2298
:10140000200EEE6E040EED6EDF6ADF50006E016A94
:10141000080E005C000E015844E2DF50EA6A280F13
:10142000E96E040EEA22EF50E66EDF50EA6A200F02
:10143000E96E040EEA22E552E750EF6EDF2AE5D7A7
:10144000706B65C0E9FF66C0EAFFEE52080EEF6EF2
:1014500065C0E9FF66C0EAFF020EE926000EEA2237
:10146000200EEE6E040EED6E65C0E9FF66C0EAFF69
:101470008C0EEF6E6BC0E9FF6CC0EAFFEF6A040EE2
:101480006B19006E6CC001F0010E00C0DBFF020E94
:101490006CC0DBFF010EDBCFE9FF020EDBCFEAFF02
:1014A000EF6A000178AF0CD07B517C1107E005D0CA
:1014B0007CC0FAFF00017B51F96EFADF0001789FD2
:1014C000030EE15C02E2E16AE552E16EE552E7CF2C
:1014D000D9FF120004012051600BE842E842E842C3
:1014E000E842E842000901E0120021510C0A43E001
:1014F0000B0A3FE00C0A31E0010A22E00B0A1EE071
:10150000020A1CE0030A18E0080A10E0010A0CE0D5
:101510000F0A08E0030A01E012000001738F080EB1
:10152000606F120042EF0BF0D5EF0DF00001610E7D
:10153000716F000E726F0CD093EF0BF0BCEF0AF0DE
:1015400024510001716F726B620E7127000E7223BD
:101550007381010E746F738F12000001738F040189
:101560002451EA6A620FE96E000EEA2222C4EFFFFC
:10157000120099EF05F01200D9CFE6FFE1CFD9FFB5
:10158000040EE1260401220510E120511F0B000981
:101590000CE10001738F030E0401215D04E10001E1
:1015A000010E7F6F02D000017F6B0401225160E1C8
:1015B00020511F0B02085CE124510F0B000958E079
:1015C0000001738F040124BF0BD024510F0BE96E6F
:1015D000EA6AD890E936EA36670EE926000E0AD0A4
:1015E00024510F0BE96EEA6AD890E936EA366B0EA1
:1015F000E926000EEA22EECFDEFFEDCFDDFF030E7F
:10160000215D06E1DECFE9FFDDCFEAFF840E2FD0BA
:1016100024510F0B016A700F006E0F0E0122020E93
:1016200000C0DBFF030E01C0DBFF020EDBCFE9FFD2
:10163000030EDBCFEAFFEE90ED5224AF0CD0DECFED
:10164000E9FFDDCFEAFFEF6ADF74DECFE9FFDDCF30
:10165000EAFF400E0CD0DECFE9FFDDCFEAFF880EB7
:10166000EF6EDF74DECFE9FFDDCFEAFFC80EEF6E6D
:10167000040EE15C02E2E16AE552E16EE552E7CF79
:10168000D9FF1200800E0401205D4CE10001C00E64
:10169000736F04012351030A29E0010A09E0030AD8
:1016A0003FE10001620E716F0C0E726F120E35D0A9
:1016B0002251F66EF76AD890F636F736290EF626DE
:1016C0000D0EF7220900F5CF71F00A00F5CF72F088
:1016D000020E0001F76A7125F66E7251F7220900B9
:1016E000F5CF74F00A00F5CF75F012002251F66EB6
:1016F000F76AD890F636F7362B0EF6260D0EF7223F
:101700000900F5CF71F00A00F5CF72F071C0F6FF55
:1017100072C0F7FF0800F5500001746F756B12007E
:101720000001736B1200D9CFE6FFE1CFD9FF020EA3
:10173000E1260401286B296B20511F0B020A11E0DE
:10174000030A0CE0010A35E10001738F04012881CE
:1017500000017F052EE1040128832BD00001738F47
:1017600028D00001738F040124BF0BD024510F0B2C
:10177000E96EEA6AD890E936EA36670EE926000E85
:101780000AD024510F0BE96EEA6AD890E936EA369E
:101790006B0EE926000EEA22EECFDEFFEDCFDDFF75
:1017A000DECFE9FFDDCFEAFFEF50040B02E0010ED0
:1017B000286F000173AF07D0280E716F040E726F8F
:1017C0007381020E746F020EE15C02E2E16AE5527F
:1017D000E16EE552E7CFD9FF12006D98000173BFAB
:1017E00047D078AF26D0020E706F6BC0E9FF6CC097
:1017F000EAFFEE52EF6A6BC0E9FF6CC0EAFFC80E69
:10180000EF6E65C0E9FF66C0EAFFEE52080EEF6EAC
:1018100065C0E9FF66C0EAFF020EE926000EEA2273
:10182000280EEE6E040EED6E65C0E9FF66C0EAFF9D
:1018300077D065C0E9FF66C0EAFFEE52080EEF6E92
:1018400065C0E9FF66C0EAFF020EE926000EEA2243
:10185000200EEE6E040EED6E65C0E9FF66C0EAFF75
:101860008C0EEF6E6BC0E9FF6CC0EAFF840E59D09E
:1018700078BF81D0040120AF56D00001745104011B
:10188000265D000175510401275904E226C474F055
:1018900027C475F071D80001010E706F65C0E9FFB3
:1018A00066C0EAFFEE52080EEF6E65C0E9FF66C043
:1018B000EAFF020EE926000EEA22200EEE6E040E6A
:1018C000ED6E65C0E9FF66C0EAFF800EEF6E63C093
:1018D000E9FF64C0EAFFEE52080EEF6E63C0E9FF55
:1018E00064C0EAFF020EE926000EEA22200EEE6E28
:1018F000040EED6E63C0E9FF64C0EAFF800EEF6E78
:101900006BC0E9FF6CC0EAFF020EE926000EEA2276
:10191000280EEE6E040EED6E6BC0E9FF6CC0EAFFA0
:10192000C80EEF6E12000001020E706F6BC0E9FF6F
:101930006CC0EAFFEE52EF6A6BC0E9FF6CC0EAFFD1
:10194000C80EEF6E65C0E9FF66C0EAFFEE52080EF2
:10195000EF6E65C0E9FF66C0EAFF020EE926000EE1
:10196000EA22280EEE6E040EED6E65C0E9FF66C039
:10197000EAFFC80EEF6E1200D9CFE6FFE1CFD9FF24
:10198000020EE1260001080E745D000E75590DE28D
:1019900074C0DEFF75C0DDFF6F5102E1010E03D0A0
:1019A0006F0506E1020E6F6F03D0080EDE6EDD6A72
:1019B0006BC0E9FF6CC0EAFFEF926BC0E9FF6CC03F
:1019C000EAFFEF906BC0E9FF6CC0EAFF010EDB504D
:1019D000EF126BC0E9FF6CC0EAFFEE52DFCFEFFF02
:1019E000000EDB50745F010EDB50755B280E7D6FBF
:1019F000040E7E6F73B120D0D9CFE9FFDACFEAFFB2
:101A0000EE50ED1038E071C0F6FF72C0F7FF712B99
:101A1000000E72230800F550E66E7DC0E9FF7EC01F
:101A2000EAFF7D2B000E7E23E552E750EF6EDF06C6
:101A3000010EE2E2DB06E0D7D9CFE9FFDACFEAFF19
:101A4000EE50ED1018E071C0E9FF72C0EAFF712B93
:101A5000000E7223EF50E66E7DC0E9FF7EC0EAFF04
:101A60007D2B000E7E23E552E750EF6EDF06010E60
:101A7000E3E2DB06E1D7020EE15C02E2E16AE55255
:101A8000E16EE552E7CFD9FF1200D9CFE6FFE1CFF3
:101A9000D9FF020EE12663C0E9FF64C0EAFFEE52FF
:101AA000EFCFDFFFDFCF00F000500001795D000EC7
:101AB0007A5903E279C0DFFF09D0DF50006E016A76
:101AC000E850795D796F01507A597A6F010EDB6ABF
:101AD000DF50F36E010EDBCFF4FFF350F45C16E23F
:101AE000010EDB50EA6A280FE96E040EEA22EF507D
:101AF000E66E76C0E9FF77C0EAFF762B000E77230B
:101B0000E552E750EF6E010EDB2AE2D7000ED880D7
:101B10007955000E7A5527E265C0E9FF66C0EAFFF5
:101B2000EE52080EEF6E65C0E9FF66C0EAFF020ED6
:101B3000E926000EEA22280EEE6E040EED6E63C05A
:101B4000E9FF64C0EAFFEF50400B06E165C0E9FF22
:101B500066C0EAFFC80E05D065C0E9FF66C0EAFFAF
:101B6000880EEF6E18D065C0E9FF66C0EAFF020E6E
:101B7000E926000EEA22200EEE6E040EED6E7B5179
:101B80007C1107E005D07CC0FAFF00017B51F96EA3
:101B9000FADF0001789F020EE15C02E2E16AE552A1
:101BA000E16EE552E7CFD9FF12000001738F000EFE
:101BB000E66EE66AE66A710EE66E0F0EE66EE8EC19
:101BC00006F0006E050EE15E0050010EE66EE66A5C
:101BD000E66A620EE66E000EE66EE8EC06F0006E57
:101BE000050EE15E005022C461F00401225104E1BF
:101BF0000001100E606F12000001200E606F9AEF5E
:101C000005F0D9CFE6FFE1CFD9FF020EE126000EA5
:101C1000DE6E040EDD6EFD0EDB50E824026EFE0E5D
:101C2000DB50040DF3500224040DF350006E016AE2
:101C3000020E0F0B05E0D89001320032E806FBE1FE
:101C4000D89000360136D89000360136D9CFE9FF5A
:101C5000DACFEAFF0050EE260150ED22DECFE9FF99
:101C6000DDCFEAFFEF9EFD0EDB500AE1FE0EEA6AD1
:101C7000DB34FE0BEA36E96E670EE926000E09D06A
:101C8000FE0EEA6ADB34FE0BEA36E96E6B0EE926DD
:101C9000000EEA22DECFEEFFDDCFEDFFDECFE9FF63
:101CA000DDCFEAFFEF9CDECFE9FFDDCFEAFF040ED8
:101CB000E926000EEA22EF8C020EE15C02E2E16A04
:101CC000E552E16EE552E7CFD9FF1200D9CFE6FF2A
:101CD000E1CFD9FF020EE126FE0EDB50016A700F44
:101CE000006E0F0E012200C0DEFF01C0DDFFFD0E01
:101CF000DB50E66EDECFE9FFDDCFEAFFE552E750CD
:101D0000EE6EED6AFD0EDBA407D0E66AFE0EDBCFB9
:101D1000E6FF77DFE552E552FD0EDBA208D0010EAB
:101D2000E66EFE0EDBCFE6FF6CDFE552E552020EFB
:101D3000E15C02E2E16AE552E16EE552E7CFD9FFEC
:101D40001200D9CFE6FFE1CFD9FF020EE126FE0E49
:101D5000DB5020E165C0E9FF66C0EAFFEE52080EE5
:101D6000EF6E65C0E9FF66C0EAFF020EE926000ECD
:101D7000EA22200EEE6E040EED6E65C0E9FF66C02D
:101D8000EAFF8C0EEF6E6BC0E9FF6CC0EAFF840EB9
:101D9000EF6E3BD0FD0EDB50E824026EFE0EDB50F2
:101DA000040DF3500224040DF3CF00F0F4CF01F042
:101DB000000E0026040E012200C0DEFF01C0DDFF80
:101DC000840EDECFE9FFDDCFEAFFE850EF12FD0E13
:101DD000DB50E824026EFE0EDB50040DF3500224AB
:101DE000010F040DF3CF00F0F4CF01F0000E002638
:101DF000040E012200C0DEFF01C0DDFF840EDECF35
:101E0000E9FFDDCFEAFFE850EF12020EE15C02E2EB
:101E1000E16AE552E16EE552E7CFD9FF1200D9CF72
:101E2000E6FFE1CFD9FF020EE126FD0EDB500AE00E
:101E3000FE0EEA6ADB34FE0BEA36E96E6B0EE9262B
:101E4000000E09D0FE0EEA6ADB34FE0BEA36E96EBC
:101E5000670EE926000EEA22EECFDEFFEDCFDDFFB2
:101E6000DECFE9FFDDCFEAFF020EE926000EEA220F
:101E7000FB0EDBCFEEFFFC0EDBCFEDFFDECFE9FF8D
:101E8000DDCFEAFFEE52FA0EDBCFEFFF400EDECFE2
:101E9000E9FFDDCFEAFFE850EF16880EDECFE9FF5D
:101EA000DDCFEAFFE850EF12FD0EDB500AE0FE0E38
:101EB000EA6ADB34FE0BEA36E96E6B0EE926000EA9
:101EC00009D0FE0EEA6ADB34FE0BEA36E96E670ED5
:101ED000E926000EEA22EF74DECF00F0DDCF01F03C
:101EE00000C0F3FF01C0F4FF020EE15C02E2E16A10
:101EF000E552E16EE552E7CFD9FF1200D9CFE6FFF8
:101F0000E1CFD9FF010EF36EFC0EDB5004E0D89058
:101F1000F336E806FCE1F31C006EFD0EDBCFE9FFB3
:101F2000FE0EDBCFEAFF0050EF16E552E7CFD9FFF8
:021F300012009D
:020000040030CA
:0100000024DB
:010001000EF0
:010002003FBE
:010003001EDE
:010005008179
:010006008178
:010008000FE8
:01000900C036
:01000A000FE6
:01000B00E014
:01000C000FE4
:01000D0040B2
:00000001FF
